:020000020000FC
:0400000009C056C01D
:0200060088C0B0
:02000C009FC093
:100012005EC0F89404E00EBF0FE50DBF00E008B922
:100022000FEF07BB04BB01BB08BB05BB02BBC098FB
:1000320000E00093640000E00093690000E0009398
:100042006A0000E000936B0000E000936000009300
:10005200610000936100009368008FEF01E809BF1F
:1000620000E002BF01E003BF01E003BD00E004BD08
:100072000DE005BD8A98829A00E005BF00E40BBF3F
:1000820068D123E029D120E227D1EEE7F1E018E0A0
:100092000FD100E011E080D1E6E8F1E01DE008D1E7
:1000A200CAD078940091600000FD50D0FBCF0F932E
:1000B2000FB70F9300E00BBF0091600000FD03C07B
:1000C20001E0009360000F910FBF0F9118959F936D
:1000D200AF93BF939FB79F9392B3A0916300A03059
:1000E20009F4947FB0916900AB1709F49160B09163
:1000F2006A00AB1709F49260B0916B00AB1709F478
:10010200986092BBA395A09363009F919FBFBF91FC
:10011200AF919F9118950F931F930FB70F93009173
:10012200690011E0010F0093690010E000916A007C
:10013200011F00936A0000916B00011F00936B0086
:100142000F910FBF1F910F9118951895829B0895DB
:100152000F931F9370D00F931F938F93CF93C4E687
:1001620080E01ED0CF918F911F910F9100E00093FC
:10017200600000E40BBF1F910F910895696E6974CE
:100182003A206F6B646973706C6179206465627583
:10019200670020202020523A473A423A8150CFEF5E
:1001A200C13070F0C15000EA1FE002C011500FEFE1
:1001B20004500430E8F7000000001030B9F7F0CF27
:1001C200803061F708951F932F9320E00A3028F0C2
:1001D200043648F0083CA0F019C021E010E3010FFA
:1001E2000093670019C0203009F422E01AE004D11C
:1001F20010E3010FF10EF0926700009366000CC04D
:1002020023E011E3109365000456EDCF23E012E3DF
:1002120010936500085CE7CF022F2F911F9108957C
:10022200D2DFE5E6F0E013E0101BE10F10E0F11F72
:10023200102F48D0089500E012E0AED0E8E9F1E0D6
:1002420012E036D001E012E0A7D0E4E9F1E014E0D8
:100252002FD001E012E0A0D000916900E1DF03E0BD
:1002620012E09AD0EAE9F1E012E022D004E012E0D2
:1002720093D0E4E9F1E014E01BD004E012E08CD06A
:1002820000916A00CDDF00E013E086D0ECE9F1E0F6
:1002920012E00ED001E013E07FD0E4E9F1E014E0D7
:1002A20007D001E013E078D000916B00B9DF089528
:1002B2000591103031F01A951F93202F0FD01F9106
:1002C200F7CF08950191103031F01A951F93202F26
:1002D20005D01F91F7CF089540E003C0A19AA09ADC
:1002E20041E001E01AE04FD0A99A27D026D025D0CC
:1002F20024D023D0A99821D0A998403009F0A99AF6
:100302001CD0A9981AD048E0403081F0443029F43A
:10031200A99813D012D011D010D04A95221F18F0EC
:10032200A9980BD0F1CFA99A08D0EECFA99805D001
:1003320004D003D002D0A998089501E012E323D09B
:10034200A89A01E012E31FD0A89801E012E31BD0A3
:1003520008950BE91FEF17D024E3BEDF01E01FEF82
:1003620012D024E3B9DF01E01FEF0DD02EE0B4DF9D
:1003720001E01FEF08D021E0AFDF00E51FEF03D05F
:1003820026E0AADF08950F930A950030E9F70F914E
:100392001A951030C1F708950F931F932F931030C1
:1003A20071F0113021F0123029F0133031F010E1E8
:1003B200010F05C018E0010F02C018E1010F20E88B
:1003C200200F8ADF2F911F910F910895E02EE126D1
:1003D20017FD119507FD0195FF1829E0001F2A95C9
:1003E20019F4E7FC01950895FF1CF11A18F4F10EB7
:1003F2008894F4CF0894F2CF2F93FF1829E0001FBE
:100402002A9511F42F910895FF1CF11A18F4F10E98
:080412008894F5CF0894F3CFA4
:00000001FF
