:020000020000FC
:1000000001C077C0F89404E00EBF0FE50DBF00E01B
:1000100008B90FEF07BB04BB01BB08BB05BB02BBA4
:10002000C09800E0009360000093640000E009BF06
:1000300003E00BBD08EE0ABD00E00DBD00E00CBD05
:1000400000E40FBD0DE00EBD8A98829A00E005BF66
:1000500000E40BBFEED0EAE7F1E018E099D000E051
:1000600011E00DD1E2E8F1E01DE092D003E012E0F2
:1000700006D100E077D078940091600000FD01D0B7
:10008000FBCF829B08950F931F9308B311E00127C4
:1000900008BB03E012E0F3D00091640003950093E5
:1000A000640060D00F931F938F93CF93C4E680E0DA
:1000B00002C08150CFEFC13070F0C15001E41FE1A8
:1000C00002C011500FEF04500430E8F700000000A8
:1000D0001030B9F7F0CF803061F7CF918F911F9139
:1000E0000F9100E00093600000E40BBF1F910F919F
:1000F0000895F89400E00BBF0091600000FD189592
:1001000001E000936000789418951F932F9320E0EE
:100110000A3028F0043648F0083CA0F019C021E06D
:1001200010E3010F0093630019C0203009F422E0AE
:100130001AE0D5D010E3010FF10EF09263000093A6
:1001400062000CC023E011E3109361000456EDCF70
:1001500023E012E310936100085CE7CF022F2F9198
:100160001F910895D2DFE1E6F0E013E0101BE10FEC
:1001700010E0F11F102F16D00895696E69743A20AF
:100180006F6B646973706C61792064656275670078
:100190000591103031F01A951F93202F0FD01F9129
:1001A000F7CF08950191103031F01A951F93202F49
:1001B00005D01F91F7CF089540E003C0A19AA09AFF
:1001C00041E001E01AE052D0A99A27D026D025D0EC
:1001D00024D023D0A99821D0A998403009F0A99A19
:1001E0001CD0A9981AD048E0403081F0443029F45E
:1001F000A99813D012D011D010D04A95221F18F010
:10020000A9980BD0F1CFA99A08D0EECFA99805D024
:1002100004D003D002D0A998089501E012E326D0BB
:10022000A89A01E012E322D0A89801E012E31ED0C0
:10023000089505E012E31AD020E2BEDF05E018E7DA
:1002400015D02EE0B9DF05E012E310D020E2B4DFD4
:1002500005E018E70BD021E0AFDF05E014E106D0A0
:1002600026E0AADF0AE018E701D008950F930A9567
:100270000030E9F70F911A951030C1F708950F93E8
:100280001F932F93103071F0113021F0123029F0AC
:10029000133031F010E1010F05C018E0010F02C06A
:1002A00018E1010F20E8200F87DF2F911F910F9198
:1002B0000895E02EE12617FD119507FD0195FF1821
:1002C00029E0001F2A9519F4E7FC01950895FF1C09
:1002D000F11A18F4F10E8894F4CF0894F2CF2F930A
:1002E000FF1829E0001F2A9511F42F910895FF1C93
:0E02F000F11A18F4F10E8894F5CF0894F3CFAC
:00000001FF
