:020000020000FC
:1000000001C059C0F89404E00EBF0FE50DBF00E039
:1000100008B90FEF07BB04BB01BB08BB05BB02BBA4
:10002000C09800E00093600000E009BF03E00BBD52
:1000300008EE0ABD00E00DBD00E00CBD00E40FBD00
:100040000DE00EBD8A98829A00E005BF00E40BBF68
:1000500078940091600000FD01D0FBCF0F931F93B7
:1000600008B311E0012708BB0F931F938F93CF9321
:10007000CCE281E002C08150CFEFC13070F0C150BE
:1000800001E41FE102C011500FEF04500430E8F703
:10009000000000001030B9F7F0CF803061F7CF9149
:1000A0008F911F910F9100E00093600000E40BBF5F
:1000B0001F910F910895F8940F9300E00BBF0091EA
:1000C000600000FD189501E0009360000F917894A6
:0200D000189581
:00000001FF
